:100000000C94EF000C94EA050C94C3050C949C0529
:100010000C9475050C9417010C9417010C94BE0CEC
:100020000C9417010C940A0A0C9411060C94830684
:100030000C9417010C9417010C9417010C941701E0
:100040000C9417010C9417010C9417010C941701D0
:100050000C9417010C9417010C9417010C94850E45
:100060000C9417010C9417010C9417010C941701B0
:100070000C9417010C9417010C9417010C941701A0
:100080000C94C1080C9417010C9417010C941701DF
:100090000C9482090C9417010C9417010C9417010D
:1000A0000C9417010C945D0C0C941701FD0C000DC1
:1000B000EF0CF30CF90C210D210D210D040D080D91
:1000C0000C0D120D160D210D1C0D080B0002020265
:1000D00000000904000001020200000524001001D4
:1000E0000524010101042402060524060001070578
:1000F000810310004009040100020A000000070506
:1001000002024000000705830240000004030904C6
:1001100012010002EF020140FB1F00230001010257
:100120000301506F6C6F6C7520436F72706F72615A
:1001300074696F6E00506F6C6F6C7520412D537435
:100140006172203332553400070605040100080AA5
:100150000B0C0D0900000000240027002A002D00D0
:10016000300000000000250028002B002E00310088
:10017000000000002300260029002C002F000404AA
:100180000404040304050202020204030202020240
:100190000606060606060404020202040404080217
:1001A00001104080401020408040800802040180FF
:1001B000402010020110801020404020000000026A
:1001C00000090F0000030401000C00000000000003
:1001D0000000000000000000000000008E13112449
:1001E0001FBECFEFDAE0DEBFCDBF11E0A0E0B1E08F
:1001F000EAE3F9E202C005900D92A43DB107D9F7F8
:1002000023E0A4EDB1E001C01D92A236B207E1F7F0
:1002100010E0CFEED0E004C02197FE010E949014C0
:10022000CE3ED107C9F70E94CF0E0C949B140C94BC
:10023000000008954091E3015091E4012091E10113
:100240003091E20142175307B4F49091E8009570A1
:10025000E1F39091E80092FD19C08093F100809144
:10026000E3019091E40101968F739927892B19F48A
:100270008EEF8093E8008091E3019091E401019674
:100280009093E4018093E30181E0089580E0089574
:10029000DF92EF92FF920F931F93CF93DF93D82EAD
:1002A000F92EE42E062F10E0C8010196880F0E9457
:1002B0001A0183E00E941A01CD2DDF2D0C0F1D1FA6
:1002C000C017D10789F0E7FE03C0FE01849101C089
:1002D00088810E941A01F82E80E00E941A018F2165
:1002E00021968111EDCF01C081E0DF91CF911F9167
:1002F0000F91FF90EF90DF900895DF92EF92FF92C1
:100300000F931F93CF93DF93D82E8A017B01E40EC6
:10031000F51EEB01CE15DF0571F0D7FE03C0FE011F
:10032000849101C088810E941A0121968111F2CF27
:100330008FEF9FEF01C0C801DF91CF911F910F9107
:10034000FF90EF90DF900895615030F02091F10020
:10035000FC0120830196F8CF289884E680930A0256
:100360000895CF92DF92EF92FF920F931F93CF9356
:10037000DF936C017A018B01C0E0D0E0CE15DF0580
:1003800081F0D8016D918D01D601ED91FC91019024
:10039000F081E02DC6010995892B11F02196EECF51
:1003A0007E01C701DF91CF911F910F91FF90EF90D8
:1003B000DF90CF900895CF93DF931F92CDB7DEB734
:1003C0006983DC01ED91FC910280F381E02D41E035
:1003D00050E0BE016F5F7F4F09950F90DF91CF9185
:1003E000089583E08093E9008091F200882319F05A
:1003F0008AE38093E8000895FC018485958597FD44
:100400000BC09FB7F89482E08093E9008091F200DE
:100410009FBF90E0019608959FB7F89482E0809383
:10042000E9008091F2009FBF90E00895089580E078
:1004300090E008954FB141708CB186FB882780F918
:1004400084272091DF015091DE016091F1017091CC
:10045000F201922F9427292F30E0982F9527291BFE
:100460003109260F371F3093F2012093F1012091BB
:10047000DF019091DE01821729F0941719F091E0C5
:100480009093DD018093DF014093DE010895809118
:10049000EC01E091ED01F091EE01882311F08491DF
:1004A00001C080819FEB980F9A3110F4805E08950F
:1004B000803269F42091ED013091EE01A9014F5F86
:1004C0005F4F5093EE014093ED01232B01F7089508
:1004D0001F93CF93DF930E944702C0E0D0E01AE061
:1004E00090ED980F9A30B8F41C9F90011D9F300D2D
:1004F0001124E901C80FD11D87FDDA95E09780919D
:10050000ED019091EE0101969093EE018093ED0143
:100510000E944702E5CFCE01DF91CF911F91089550
:100520002F923F924F925F926F927F928F929F9203
:10053000AF92BF92CF92DF92EF92FF920F931F93F1
:10054000CF93DF93CDB7DEB727970FB6F894DEBF12
:100550000FBECDBF9F838E831B014D838091D5013C
:1005600081111BC081E08093D5011092720010921E
:10057000C00094E09093C10099E09093C2008093F2
:10058000C30083E08093BF0088EE8093D100109277
:10059000BF001092D200579A7894109200012E81D9
:1005A0003F8137FF05C03F773F832E830AE001C0BC
:1005B00001E088E2089F802D112490E04E815F8148
:1005C0004817590708F4C2C0013039F44131574285
:1005D00020F020E137E23F832E83402E512C612C06
:1005E000712C8E819F81969587959C0140E050E00B
:1005F00029833A834B835C834E815F814A01A12C1E
:10060000B12CA301920160E072E18AE790E00E94C0
:10061000601429813A814B815C81620F731F841FB2
:10062000951FA50194010E94FD1369017A01EE2432
:10063000FF2410E01F5FC11434E0D306E104F1048D
:1006400008F120E032E14AE750E0012E04C0559560
:100650004795379527950A94D2F7C301B2010E94B6
:10066000601429813A814B815C81620F731F841F62
:10067000951FA50194010E94FD1369017A01EE24E2
:10068000FF24D8CF0A3049F48E819F8105966AE015
:1006900070E00E947C147F836E834E815F81483EB0
:1006A00083E0580759F09101DA010E94511428EEB5
:1006B00033E040E050E00E94FD13190110927200F7
:1006C0008091C100807F182B1093C100BB27AF2DF4
:1006D0009E2D8D2D8093BF00C092D1002D812031A1
:1006E00008F02FE080E190E0821B910904C0F694AD
:1006F000E794D794C7948A95D2F78D2D9927809344
:10070000BF00C092D2003092D7012092D60189B3A7
:100710008FEF89BB84E08093720027960FB6F89420
:10072000DEBF0FBECDBFDF91CF911F910F91FF9024
:10073000EF90DF90CF90BF90AF909F908F907F9081
:100740006F905F904F903F902F9008959F838E837E
:1007500044CFFC018481882391F080E09481891743
:1007600068F4DF01A80FB11D15969C9115972281A1
:10077000A20FB11DD9969C938F5FF0CF148208957C
:10078000EBE4F0E03197F1F7FC0113820895EBE41C
:10079000F0E03197F1F7FC01228131E0320F328332
:1007A000E20FF11D858908950F931F93CF93DF9377
:1007B0001F92CDB7DEB782E0898342E450E06AEC55
:1007C00070E080E80E947D010E94B20DDC0112966B
:1007D0000D911C9113970115110589F0D801ED9128
:1007E000FC910280F381E02DBE016F5F7F4FC80155
:1007F000099597FD04C0F80100851185ECCF89812A
:100800000F90DF91CF911F910F9108958F929F923A
:10081000AF92BF92CF92DF92EF92FF920F931F930E
:10082000CF93DF936C017B018A01809115018823AE
:1008300009F458C080910B02882309F453C08091B9
:10084000E70180FF05C08091E00082608093E000B6
:10085000E801B12C8AEFA82E93E0892E2AE3922E8C
:10086000209711F4BB20B9F10E94870D811106C0B9
:10087000AA94AA20B9F10E94980DF2CF282F30E057
:10088000C217D3070CF48C2F9FB7F8948092E9001D
:100890002091E80025FF1DC0282F30E0C21BD30B9C
:1008A000F701815020F041914093F100FACFE20E20
:1008B000F31EBB2019F09092E8000AC08091E80076
:1008C00085FD07C09092E800BB24B394209709F0FF
:1008D000B12C9FBFC5CF5D9884E68093E6011016CA
:1008E000110644F081E090E0F6019383828380E07A
:1008F00090E001C0C801DF91CF911F910F91FF904F
:10090000EF90DF90CF90BF90AF909F908F90089521
:100910000E94870D90E008950F931F93CF93DF936C
:100920001F92CDB7DEB78C01FC018485958597FFBA
:100930000EC0CE0101960E94590D019719F48981CC
:1009400090E002C08FEF9FEFF80195878487F80150
:10095000848595850F90DF91CF911F910F91089518
:10096000CF93DF931F92CDB7DEB7FC0184859585C9
:1009700097FD05C02FEF3FEF358724870BC0CE01D1
:1009800001960E94590D019719F4898190E002C0E7
:100990008FEF9FEF0F90DF91CF910895CF93DF936B
:1009A000EC01888581110FC081E088878A858823C2
:1009B00011F062E001C060E089850E941E0E8FE0A8
:1009C00090E00197F1F789850E94C60D2B8530E0F4
:1009D00041E02817390709F440E0842FDF91CF91D7
:1009E0000895CF93DF93EC018BE490E00197F1F74A
:1009F0008B8181110DC0DE015596FE01F99684E2CE
:100A000001900D928A95E1F76A8381E08B830BC098
:100A10008C81813108F01C828C81FE01E80FF11D70
:100A200065838F5F8C83DF91CF910895CF93DF93A0
:100A3000A2EEB0E09C911C92E9EEF0E030811082D1
:100A4000C0EFD0E04881188220E0289921602099E9
:100A500022602098289A80E18A95F1F783B121FBE2
:100A60000EF0209820FB0EF028980EF4289A21FB17
:100A70000EF4209A1082488330839C938095817075
:100A8000DF91CF910895CF93DF93A2EEB0E04C9128
:100A90001C92E9EEF0E050811082C0EFD0E0688156
:100AA000188220E05D9921605599226055985D9AE1
:100AB00080E18A95F1F739B121FB0EF0559820FBC2
:100AC0000EF05D980EF45D9A21FB0EF4559A10829B
:100AD000688350834C9335FB882780F990E021E0B0
:100AE00082278170DF91CF9108951F920F920FB6E8
:100AF0000F9211242F933F934F935F936F937F93A4
:100B00008F939F93AF93BF93EF93FF93E0911C015B
:100B1000F0911D010995FF91EF91BF91AF919F91C8
:100B20008F917F916F915F914F913F912F910F9096
:100B30000FBE0F901F9018951F920F920FB60F9235
:100B400011242F933F934F935F936F937F938F93D2
:100B50009F93AF93BF93EF93FF93E0911A01F091AE
:100B60001B010995FF91EF91BF91AF919F918F91DB
:100B70007F916F915F914F913F912F910F900FBE99
:100B80000F901F9018951F920F920FB60F9211247D
:100B90002F933F934F935F936F937F938F939F9385
:100BA000AF93BF93EF93FF93E0911801F091190178
:100BB0000995FF91EF91BF91AF919F918F917F9197
:100BC0006F915F914F913F912F910F900FBE0F90BA
:100BD0001F9018951F920F920FB60F9211242F930A
:100BE0003F934F935F936F937F938F939F93AF93B5
:100BF000BF93EF93FF93E0911601F09117010995D0
:100C0000FF91EF91BF91AF919F918F917F916F91E4
:100C10005F914F913F912F910F900FBE0F901F90BA
:100C200018951F920F920FB60F9211248F939F93D6
:100C30008091E1009091E100937F9093E10083FF28
:100C40000FC01092E90091E09093EB001092EC003D
:100C500092E39093ED0010920B0298E09093F000D5
:100C600082FF20C093E09093E9009091F2009923D5
:100C700019F09AE39093E8009091E601992339F0F6
:100C80009091E60191509093E601992389F190911A
:100C90000A02992339F090910A02915090930A0226
:100CA000992341F184FF10C08091E2008E7E816023
:100CB0008093E2008091E1008F7E8093E10080913B
:100CC000E7018E7E806111C080FF16C08091E20036
:100CD0008E7E80618093E2008091E1008E7E809321
:100CE000E1008091E7018E7E81608093E70104C07E
:100CF0005D9ACDCF289AD6CF9F918F910F900FBE3E
:100D00000F901F9018951F920F920FB60F921124FB
:100D1000CF92DF92EF92FF920F931F932F933F9307
:100D20004F935F936F937F938F939F93AF93BF93F3
:100D3000EF93FF93CF93DF93CDB7DEB76C97DEBF12
:100D4000CDBF1092E9008091E80083FFFBC168E00D
:100D5000CE0145960E94A40182EF8093E8008D8920
:100D600087FF05C09091E80090FFFCCF03C09EEF85
:100D70009093E800982F907609F0C6C09E894F891D
:100D8000588D2F89F88C91110CC0803829F48091EE
:100D9000E8018093F10002C01092F1001092F1007E
:100DA00045C1913051F4811141C14130510509F0E3
:100DB0003DC18091E8018D7F0BC0933061F48111BA
:100DC00035C14130510509F031C18091E80182609F
:100DD0008093E8012BC1953049F48091E80080FFB1
:100DE000FCCF822F80688093E30020C1963009F009
:100DF0005EC00B8D1C8D22E01092E9001092E40180
:100E00001092E301F21232C01092E2011092E1015D
:100E10000E94D40399E0BE016F5F7F4FDB01E92F91
:100E20001D92EA95E9F79983FA8291E09E8390EA10
:100E300098879AEF99872091E3013091E401275F29
:100E40003F4F3C832B838D831092E9001092E40185
:100E50001092E3011093E2010093E10149E050E0B8
:100E600080E00E947D010E94D403E0C01093E20163
:100E70000093E1010E94B20DDC0112960D911C91CC
:100E800013970115110509F4BBC0D801ED91FC9130
:100E90000480F581E02DBE016B5E7F4FC80109958E
:100EA000009709F0C7C0F80100851185EACF973097
:100EB00009F445C1983021F481E08093F100B6C077
:100EC000993009F0B3C0837009F039C1E9E3F1E06A
:100ED00081E031E096E32081211109C08EE7809303
:100EE000EA001092EA008F8980930B029FC08093E2
:100EF000E9003093EB0021912093EC009093ED00FA
:100F00008F5F873041F7EACF8B8D9C8D1092E9007F
:100F10001092E4011092E3019093E2018093E101C9
:100F2000898D811153C08E899D89913A49F481320E
:100F300009F005C147E050E06EE071E080E0BBC021
:100F4000913209F0FCC0833269F48F89988DA0E05A
:100F5000B0E080930A0190930B01A0930C01B09331
:100F60000D0164C0803269F48091E80082FFFCCFFB
:100F700067E08EE091E00E94A4018BEF8093E8008F
:100F800055C0823209F052C08F8980931501EEEF6F
:100F9000FFE7859194918B3F9C4D19F0E0E0F8E0DC
:100FA00002C0EEEFFAE080910E0190910F01A09146
:100FB0001001B0911101803B9440A105B10509F0E9
:100FC0009EC08091150180FF79C099C00E94B20D2A
:100FD000FC01028113810115110509F4B0C0D8018B
:100FE000ED91FC910190F081E02DBE016B5E7F4F91
:100FF000C801099581111AC0F80100851185EBCF50
:10100000F1E0FF1609F44EC0F3E0FF1298C08F899B
:10101000882309F44AC0823089F440E862E185E31C
:1010200091E00E944801882309F489C08EEF8093E3
:10103000E80088C018161906CCF381C0813029F465
:1010400040E862E182E291E0ECCF833009F077C0C2
:101050000E94B20DDC011296ED90FC9013978E0168
:101060000F5F1F4F6801E114F10479F0D701ED9192
:10107000FC910680F781E02DB801C7010995080FA2
:10108000111DF701E084F184EECFD8011C92F60126
:1010900001900020E9F73197BF016C197D0940E00C
:1010A000C601BFCF60E171E002C06CE071E0FB01FE
:1010B000449150E080E80E947D01B8CFEE3F2AE0E5
:1010C000F20751F0808191818737A7E79A0721F0D5
:1010D0009093FF0A8093FE0A87E797E791838083C6
:1010E000809160008093E5019BE088E10FB6F89461
:1010F000A895809360000FBE9093600097CF808189
:1011000091818737974709F091CFA895809160002A
:101110008861809360008091E50180936000EE3FDC
:10112000BAE0FB0739F08091FE0A9091FF0A9183A3
:1011300080837CCF1092FF0A1092FE0A77CF81E263
:101140008093EB006C960FB6F894DEBF0FBECDBF58
:10115000DF91CF91FF91EF91BF91AF919F918F91CF
:101160007F916F915F914F913F912F911F910F91BF
:10117000FF90EF90DF90CF900F900FBE0F901F90D9
:1011800018951F920F920FB60F9211242F933F9331
:101190004F935F936F937F938F939F93AF93BF937F
:1011A000EF93FF938091E00187FF05C010929500B7
:1011B000109294001BC02091E001022E000C330B12
:1011C0008091800290E02817390784F48091E00133
:1011D000082E000C990BFC01EE0FFF1F8E0F9F1FB6
:1011E000FC01E45AFD4F808186FD15C08091E0012D
:1011F0008F5F8093E0012091E001022E000C330B01
:101200008091800290E028173907C4F48091E001B2
:101210008C3064F113C08091E001082E000C990B12
:10122000FC01EE0FFF1F8E0F9F1FFC01E45AFD4FC4
:10123000808160E08F730E94EF0DD8CF8091940081
:1012400090919500049680349C4918F480E49CE9C0
:1012500005C0809194009091950004969093990018
:10126000809398008FEF8093E0013BC02091940021
:10127000309195008091E001082E000C990BFC0143
:10128000EE0FFF1F8E0F9F1FFC01E45AFD4F81815F
:101290009281820F931F9093990080939800809180
:1012A000E001082E000C990BFC01EE0FFF1F8E0FC2
:1012B0009F1FFC01E45AFD4F808186FF12C0809180
:1012C000E001082E000C990BFC01EE0FFF1F8E0FA2
:1012D0009F1FFC01E45AFD4F808161E08F730E94E3
:1012E000EF0DFF91EF91BF91AF919F918F917F9102
:1012F0006F915F914F913F912F910F900FBE0F9083
:101300001F9018951F920F920FB60F9211242F93D2
:101310003F934F935F936F937F938F939F93AF937D
:10132000BF93EF93FF938091B900803809F178F46F
:101330008823E1F18036E9F58091E9019091EA0195
:10134000DC01ED91FC910480F581E02D1FC0883A0D
:10135000F9F0883BE9F0803A61F58091E9019091DC
:10136000EA01DC01ED91FC910680F781E02D0EC0D1
:101370008091E9019091EA016091BB00DC01ED915F
:10138000FC910190F081E02D099513C0099511C0E1
:101390008091E9019091EA01DC01ED91FC910280DC
:1013A000F381E02D09958093BB0003C084ED809309
:1013B000BC0085EC8093BC00FF91EF91BF91AF9191
:1013C0009F918F917F916F915F914F913F912F915D
:1013D0000F900FBE0F901F9018952E98269A2D985B
:1013E000259A2A98229A2998219A80EA8093800047
:1013F00081E18093810080E991E090938700809360
:101400008600109289001092880010928B00109232
:101410008A0008951F920F920FB60F9211242F93F6
:101420003F934F935F936F937F938F939F938CB171
:1014300090E09595879595958795482F417023B1B4
:1014400030E054E0359527955A95E1F782279327A8
:1014500081702091DC015091DB016091EF0170916E
:10146000F001922F9427292F30E0982F9527291BE0
:101470003109260F371F3093F0012093EF0120919F
:10148000DC019091DB01821729F0941719F091E0AB
:101490009093DA018093DC014093DB019F918F915F
:1014A0007F916F915F914F913F912F910F900FBE60
:1014B0000F901F9018958091D901811145C081E04E
:1014C0008093D90124982C9A6A98729A6E98769A89
:1014D0008098889A8093680090E190936B008BBB12
:1014E0008AE192E090931F0180931E0180916A002F
:1014F0008F7C806180936A00EE9A8CB182FB882792
:1015000080F98093DB0183B19091DB01829581703A
:1015100089278093DC011092F0011092EF01109264
:10152000DA018FB181708093DE019CB12091DE01E0
:1015300096FB882780F982278093DF011092F201C1
:101540001092F1011092DD0108956F927F928F92B7
:101550009F92AF92BF92CF92DF92EF92FF920F9342
:101560001F93CF93DF93909009018091D801882336
:1015700021F08091EB01811187C17724739470EC85
:10158000A72E7DE5B72EEAE06E2EF4E08F2EA0EDBB
:10159000CA2EA7E0DA2EB4E0EB2EF12C04EF11E016
:1015A000CFE0D0E00E9447022091ED013091EE01A2
:1015B0002F5F3F4F3093EE012093ED01853609F404
:1015C0005FC07CF5813609F49FC024F58C3309F4A3
:1015D00052C08E3309F44DC0813209F090C0809220
:1015E0000901D0920601C0920501F0920801E09233
:1015F00007011093040100930301D0930201C093EB
:1016000001011092D80190900901809103019091FD
:101610000401C8CF833609F47AC07CF5E12C2BE0B5
:1016200078C08D36B1F16CF4873681F164F18C3677
:1016300009F065C00E946802909308018093070139
:101640004FC08237D9F14CF48F3609F058C00E9450
:101650006802982E80930901A5CF843791F18637CF
:1016600009F04DC00E94680290930201809301012D
:1016700099CF939497CF9A9495CFE12C22E049C0CB
:10168000E12C24E046C0E12C25E043C0E12C27E01A
:1016900040C00E9447028C3619F41092D80104C051
:1016A0007092D8011092EB018091ED019091EE01C2
:1016B00001969093EE018093ED0174CFEE24E394B4
:1016C00027C00E946802BC01C5010E947C14669E6E
:1016D000C001679E900D112490930601809305012F
:1016E00080910501909106016091070170910801B8
:1016F0000E947C14709304016093030153CF1092F5
:10170000EE011092ED01CAC0E12C29E002C0E12CEB
:1017100020E0F22E8CE0989EF00C11240E944702EB
:10172000982F977F933259F48091ED019091EE01BB
:1017300001969093EE018093ED01F394EFCF8D32FB
:1017400069F48091ED019091EE0101969093EE0184
:101750008093ED01FA940E944702F1CFC0910301FA
:10176000D09104018153883058F4C0910501D09183
:1017700006010E946802BC01CE010E947C14EB01AC
:101780008E01169507950E9447028E3261F4809172
:10179000ED019091EE0101969093EE018093ED01A1
:1017A000C00FD11FEECF8091D801882349F0CE0120
:1017B000969587958093EB018091EB01C81BD10929
:1017C0000091010110910201E11005C09FEFF9168F
:1017D00011F0011105C040E0BE0188EE93E044C065
:1017E00080E18F1530F420EF2F0D203618F02FE513
:1017F00001C020E0822F6CE00E94701430E09CE079
:10180000899F2019310911242C30310540F4220F11
:10181000331FF901E05EFE4F2081318102C020E0DC
:1018200030E0873081F0082E02C0220F331F0A9467
:10183000E2F7823028F0C90105966AE070E00CC03A
:10184000C90190580CC0C90126E0880F991F2A953C
:10185000E1F7029665E070E00E947C14CB01402F16
:10186000003108F04FE0BE01DF91CF911F910F9141
:10187000FF90EF90DF90CF90BF90AF909F908F90B0
:101880007F906F900C9490026091EB0170E040E0CB
:1018900088EE93E00E9490021092EB01DF91CF91CD
:1018A0001F910F91FF90EF90DF90CF90BF90AF907E
:1018B0009F908F907F906F9008951F920F920FB618
:1018C0000F9211242F933F934F935F936F937F93C6
:1018D0008F939F93AF93BF93EF93FF938091D60124
:1018E0009091D7019C01215031093093D701209369
:1018F000D601892B11F51092720078948091C10065
:10190000807F84608093C10083E08093BF0088EE75
:101910008093D1001092BF001092D20081E080939A
:1019200000018091ED019091EE01892B31F08091C1
:10193000D401811102C00E94A50AFF91EF91BF91CD
:10194000AF919F918F917F916F915F914F913F9157
:101950002F910F900FBE0F901F901895811102C00C
:101960005D9A01C05D98559A0895811102C0289A28
:1019700001C02898209A08950E9496141F920F92F1
:101980000FB60F9211242F933F934F935F936F9352
:101990007F938F939F93AF93BF93EF93FF93E091C8
:1019A0001E01F0911F010995FF91EF91BF91AF9139
:1019B0009F918F917F916F915F914F913F912F9167
:1019C0000F900FBE0F901F90189590E0FC0131977B
:1019D000EF30F105B0F5EA5AFF4F0C949014809166
:1019E00080008F7703C0809180008F7D809380007E
:1019F000089580918000877FF9CF84B58F7702C0EA
:101A000084B58F7D84BD0895809190008F7707C045
:101A1000809190008F7D03C080919000877F80939C
:101A2000900008958091C0008F7703C08091C0001E
:101A30008F7D8093C00008958091C200877F80933E
:101A4000C20008953FB7F8948091520390915303D8
:101A5000A0915403B091550326B5A89B05C02F3F14
:101A600019F00196A11DB11D3FBFBA2FA92F982FC4
:101A70008827820F911DA11DB11DBC01CD0142E03F
:101A8000660F771F881F991F4A95D1F70895009711
:101A900069F0FC0101900020E9F73197AF01481B84
:101AA000590BBC018CE092E00C94060480E090E0BD
:101AB000089520910B02211103C08FEF9FEF08952D
:101AC0005FB7F89422E02093E9002091F20030E023
:101AD0001216130614F421E030E0422FFC0184E6D4
:101AE000415038F0289880930A029091F100919328
:101AF000F7CF2115310521F08091F200882319F0EC
:101B00005FBFC90108958BE68093E800F9CF2FB736
:101B1000F89483E08093E9009091E800892F807227
:101B200095FF04C09091F20080E4891B2FBF0895B7
:101B3000CF92DF92EF92FF920E94220D6B017C0107
:101B40000E94220DDC01CB018C199D09AE09BF0951
:101B5000883E9340A105B10598F3FF90EF90DF9088
:101B6000CF90089580915A0381110DC082E0809337
:101B7000560384E080935703109259031092580340
:101B800081E080935A0386E593E00895CF93DF9335
:101B9000282F30E0F901E454FE4F8491F901E35617
:101BA000FE4FD491F901E258FE4FC491CC2391F03D
:101BB00081110E94E50CEC2FF0E0EE0FFF1FE059C1
:101BC000FE4FA591B491EC91ED2381E090E021F4DA
:101BD00080E002C080E090E0DF91CF9108951F93F4
:101BE000CF93DF93282F30E0F901E454FE4F849126
:101BF000F901E356FE4FD491F901E258FE4FC4912A
:101C0000CC23C1F0162F81110E94E50CEC2FF0E0DF
:101C1000EE0FFF1FEE59FE4FA591B4919FB7F894B8
:101C2000111104C08C91D095D82302C0EC91DE2B09
:101C3000DC939FBFDF91CF911F910895CF93DF93E6
:101C400090E0FC01E356FE4F2491FC01E258FE4F68
:101C50008491882361F190E0880F991FFC01EC5A70
:101C6000FE4FC591D491FC01EE59FE4FA591B49160
:101C7000611109C09FB7F8948881209582238883D9
:101C8000EC912E230BC0623061F49FB7F8948881E9
:101C9000322F309583238883EC912E2B2C939FBF7A
:101CA00006C08FB7F894E8812E2B28838FBFDF9171
:101CB000CF910895823108F08251E82FF0E0E85B7F
:101CC000FE4FE49180917B00E3FB222720F930E076
:101CD00095E0220F331F9A95E1F78F7D282B2093F3
:101CE0007B00E770E064E0937C0080917A00806480
:101CF00080937A0080917A0086FDFCCF80917800F5
:101D00002091790090E0922B08951F920F920FB6C8
:101D10000F9211242F933F938F939F93AF93BF9371
:101D20008091060290910702A0910802B0910902E9
:101D30003091510323E0230F2D3720F40196A11D8C
:101D4000B11D05C026E8230F0296A11DB11D2093E9
:101D500051038093060290930702A0930802B09368
:101D600009028091520390915303A0915403B091C2
:101D700055030196A11DB11D809352039093530307
:101D8000A0935403B0935503BF91AF919F918F914E
:101D90003F912F910F900FBE0F901F901895CF93EA
:101DA000DF93CDB7DEB7A4970FB6F894DEBF0FBEB2
:101DB000CDBF789484B5826084BD84B5816084BDD4
:101DC00085B5826085BD85B5816085BD80916E00D9
:101DD000816080936E00109281008091810082600A
:101DE0008093810080918100816080938100809147
:101DF0008000816080938000809191008260809358
:101E00009100809191008160809391008091900079
:101E10008160809390008091C10084608093C100B4
:101E20008091C10082608093C1008091C100816077
:101E30008093C1008091C30081608093C300809132
:101E4000C00082608093C0008091C2008160809356
:101E5000C20080917A00846080937A0080917A0039
:101E6000826080937A0080917A00816080937A000A
:101E700080917A00806880937A0010920B02109211
:101E8000E8011092E7018091D70081608093D7002C
:101E900080EA8093D80089B5806189BD89B5826068
:101EA00089BD09B400FEFDCF0E94980D8091D80035
:101EB0008F7C80618093D8008091E000807F809348
:101EC000E0008091E1008E7E8093E1008DE08093C0
:101ED000E200559A209A81E892E09093EA0180937B
:101EE000E90188E28093BA0061E082E00E94EF0D90
:101EF00061E083E00E94EF0D85EC8093BC0086E3F7
:101F000093E00E94CE04882331F08EE293E00E9499
:101F100043058111F1C3809104021092720088235D
:101F200099F089E791E09093EE018093ED01109292
:101F3000EC011092EB010E94A50A8FEF9FEF9093A6
:101F40001902809318020CC08CE891E09093EE0186
:101F50008093ED011092EC011092EB010E94A50A12
:101F6000F89484E2EAEBF2E0A2E0B3E001900D9293
:101F70008A95E1F7789484E2E2E0F3E0AEEDB2E036
:101F800001900D928A95E1F78DEE80930403809184
:101F90000502882319F081E08093050380910402F3
:101FA000882309F4B1C0C0900203D0900303D7FE88
:101FB0006FC08BE991E00E94470D8AEB91E00E948F
:101FC000470D412C512C32010DE010E0C601002ECE
:101FD00002C0969587950A94E2F7282F2370B22EB7
:101FE00019A2A30192017E0181E2E80EF11CCA014F
:101FF000B9012AE030E040E050E00E942F14605D1B
:10200000D7016E937D01211531054105510579F701
:10201000CD010E94470D8DEB91E00E94470DB2E08B
:10202000BB1679F0E3E0BE1649F0F1E0BF1619F0F7
:1020300080EC91E008C085EC91E005C089EC91E06E
:1020400002C08DEC91E00E94470D24E0421621F081
:1020500081ED91E00E94470D025011093FEF431AB4
:10206000530A630A730A0330110509F0AFCF8CEBF2
:1020700091E00E94470D8AEB91E00E94470D81E0BC
:1020800080930503809305021092030310920203CC
:102090002FB7F8948091060290910702A091080250
:1020A000B09109022FBF4091F4015091F501609168
:1020B000F6017091F701841B950BA60BB70B853FBA
:1020C0009140A105B10508F4FFC22FB7F8948091A3
:1020D000060290910702A0910802B09109022FBF59
:1020E0008093F4019093F501A093F601B093F7016A
:1020F0001091F30181E081278093F3010E94AE0CDF
:10210000812F0E94B50CE0C22FB7F894809106028F
:1021100090910702A0910802B09109022FBF40914F
:102120000002509101026091020270910302841B2F
:10213000950BA60BB70B893E9340A105B10540F066
:1021400010921B0310921A0310921D0310921C038D
:10215000809106038823A9F02FB7F8948091060296
:1021600090910702A0910802B09109022FBF8093BD
:10217000000290930102A0930202B0930302109216
:1021800006038091070387FF17C0282F30E035959D
:1021900027953595279523709FEF920F923060F425
:1021A0008370823048F4213019F48093FF0102C01B
:1021B0008093FE0110920703809002039090030326
:1021C00097FEBCC002E413E04FE3C42E41E0D42EDE
:1021D00054E4E52E51E0F52E69EF262E61E0362E0F
:1021E0007DE0A72EB12C612CECE04E2EF2E05F2EAC
:1021F000C4010A2C02C0969587950A94E2F7837071
:10220000D8012C91E22FF0E0AF01440F551FE40FED
:10221000F51FE45AFD4F908196FF02C09F7B90838B
:10222000F10181931F01823009F463C0833051F0C2
:10223000813021F061E0D7018C9166C062E0F70146
:10224000808162C02C3008F061C0D7017C9061E0D1
:10225000872D0E941E0EF8018081E82FF0E09F017B
:10226000220F331FE20FF31FE45AFD4F972D9F7388
:102270002081207C722E792A7082D80111961C92BE
:10228000119712961C92642D0E947014BCE08B9FD3
:10229000B001112440E050E09B01240F351FF901EB
:1022A000EE0FFF1FE20FF31FE45AFD4F908196FDE2
:1022B00012C04F5F5F4F4C30510571F781110BC059
:1022C00010929000509291001092950010929400FC
:1022D00058BA50927100D801EC91F0E0CF01880F0C
:1022E000991FE80FF91FE45AFD4F808180648083B5
:1022F0000DC0662009F404C2F601708060E0872DED
:102300000E94EF0D60E0872D0E941E0E6394F2E0A4
:10231000AF1AB1080D5F1F4F2FEFC21AD20A3FEF5D
:10232000E31AF30A45E0641263CF81E0809305036A
:1023300080930502109203031092020386E393E058
:102340000E94CE048093080380910B03882311F030
:10235000479A01C047983F9A8091FF01813039F434
:102360008EE293E00E9443058093090304C08091AC
:1023700009030E94AE0C8091FE018130C9F486E20F
:1023800093E00E94160580930A0389EF91E09BA3D6
:102390008AA36CE0C62E63E0D62E74E4A72E71E00B
:1023A000B72E02E413E0EFE38E2EE1E09E2E1EC076
:1023B00080910A030E94B50CE8CF8130F8F082309A
:1023C00071F18330B1F152E0C50ED11C8FEFA81A24
:1023D000B80A0D5F1F4F9FEF891A990AAEEFB1E05F
:1023E000EAA1FBA1AE17BF0709F4C4C0AAA1BBA113
:1023F0008D91BBA3AAA3813001F70CC061E0F60167
:1024000080819181892B09F460E0D5018C910E9433
:10241000EF0DD9CFF50180810E94C60D06C0F401F1
:102420008081882381F20E945A0ED6018D939C935D
:10243000CACFF801F081FCA3EF2EF12C1701220C7A
:10244000331CF101EE0DFF1DE45AFD4F808186FF24
:10245000BACFD6012D913C91C901330FAA0BBB0B0A
:102460009C01AD0120573E4F4F4F5F4FA4EBB0E0B2
:102470000E941C1420E233E040E050E00E94FD1373
:10248000C9012032B2E03B070CF040C037FD06C066
:10249000253B31052CF084EB90E002C080E090E019
:1024A000F801218178E8472E512C421A510827FD66
:1024B0005394D201AA0FBB1FAA0FBB1F2D01BB0F44
:1024C00066087708228148E552E0421B510927FD42
:1024D00053959A01220F331F220F331FA901330F87
:1024E000660B770B9A01AB01241935094609570988
:1024F000DC010E94271424EB30E040E050E00E9411
:10250000FD13420E531E641E751EC2015CA15C3099
:1025100008F059CFD80111962C91A8E8B0E0A21B81
:10252000B10927FDB395AA0FBB1FAA0FBB1F8A17BE
:102530009B0794F0F801228148E552E0421B5109C3
:1025400027FD53959A01220F331F220F331FDC0101
:10255000281739070CF4D9011297AA0FBB1F8FB7A0
:10256000F894F101EE0DFF1DE45AFD4FB283A183F3
:102570008FBF29CF00911C0310911D03E0901A0317
:10258000F0901B038091F801811105C081E08093D8
:10259000F8010E94ED09F7FE05C0F194E194F108FD
:1025A00021E001C020E0C701FDE2EF16F1E0FF06E7
:1025B00014F08CE291E090938B0080938A002223A8
:1025C00011F02A9A01C02A98229A8091F80181116B
:1025D00005C081E08093F8010E94ED0917FF05C056
:1025E00011950195110981E001C080E00D3221E0D3
:1025F000120714F00CE211E0109389000093880098
:10260000882311F0299A01C02998219A80912003EA
:10261000882371F0109220030E945B0AF894809145
:10262000EF019091F0011092F0011092EF01789477
:1026300080912103882371F0109221030E945B0A8C
:10264000F8948091F1019091F2011092F2011092B0
:10265000F10178940E945B0AF8948091EF019091C7
:10266000F001789490932303809322030E945B0AE5
:10267000F8948091F1019091F20178949093250360
:102680008093240338E0F32E00E010E083E10E9401
:102690005A0E080F191FFA94F110F8CF9801A3E50C
:1026A000B7E00E945114DC01CB0181509E4FAF4F27
:1026B000BF4F2AE0B695A795979587952A95D1F7AC
:1026C00090931F0380931E03F894EEEDF2E022E056
:1026D00033E0919183A1981719F0DF0195978C93BE
:1026E0002E173F07B1F7789480E090E0892B09F42A
:1026F00037CC0E94000034CC81E0809304020BCCE4
:1027000032E0A31AB1080D5F1F4F4FEFC41AD40A6D
:102710005FEFE51AF50A662463946ACD10920F0202
:1027200010920E0288EE93E0A0E0B0E080931002D9
:1027300090931102A0931202B09313028DE491E0E2
:1027400090930D0280930C028FEF9FEF90931902EC
:102750008093180280918002A2E4B3E09FEF48EBDF
:102760005BE08C3078F48C93282F30E0F901EE0F89
:10277000FF1F2E0F3F1FF901E45AFD4F5283418383
:102780008F5F01C09C93139623E0A135B20749F7F0
:10279000809380021092380310923B0310923E0304
:1027A0008EE080933F0381E0809340038093410358
:1027B0008BE691E0909337038093360310923003B9
:1027C0001092330385E691E090932F0380932E03BC
:1027D0001092280310922B038FE591E0909327032A
:1027E0008093260381E791E0909382028093810297
:1027F00010928402109285020895052E97FB1EF414
:1028000000940E94141457FD07D00E942F1407FC57
:1028100003D04EF40C9414145095409530952195A6
:102820003F4F4F4F5F4F08959095809570956195FC
:102830007F4F8F4F9F4F08950E945114A59F900D79
:10284000B49F900DA49F800D911D11240895B7FF92
:102850000C941C140E941C14821B930B0895A1E27B
:102860001A2EAA1BBB1BFD010DC0AA1FBB1FEE1F0A
:10287000FF1FA217B307E407F50720F0A21BB30B55
:10288000E40BF50B661F771F881F991F1A9469F7D1
:1028900060957095809590959B01AC01BD01CF012D
:1028A0000895A29FB001B39FC001A39F700D811D29
:1028B0001124911DB29F700D811D1124911D089549
:1028C000DB018F939F930E941C14BF91AF91A29F35
:1028D000800D911DA39F900DB29F900D112408951E
:1028E000991B79E004C0991F961708F0961B881F62
:1028F0007A95C9F780950895AA1BBB1B51E107C0C3
:10290000AA1FBB1FA617B70710F0A61BB70B881F7F
:10291000991F5A95A9F780959095BC01CD0108950E
:10292000EE0FFF1F0590F491E02D099481E090E0F7
:0A293000F8940C949B14F894FFCF68
:10293A00010F00F401D007040004FFFFFFFF00E1CC
:10294A0000000000000019011901190119011901FB
:10295A009C01B501CF01EA0107022602470269027A
:10296A008E02B502DE020A0300C180810000000067
:10297A00181415160B0414151600000000DB0106C6
:10298A00048804F101FC01B0048C04000000001664
:10299A000500000000430500000000CE040000000E
:1029AA0000F104C703C003A903214C313620763154
:1029BA003020636465666761623E63007631303E4B
:1029CA003E6731363E3E3E6331360052657175656B
:1029DA007374656420746F20636F6E6669677572BD
:1029EA006520494F2070696E73000D0A003A200075
:1029FA00444F55540044494E0050574D0041494EEA
:042A0A00002C20007C
:00000001FF
